:020000040000FA
:100000000C9469000C9491000C9491000C94910054
:100010000C9491000C9491000C9491000C9491001C
:100020000C9491000C9491000C9491000C9491000C
:100030000C9491000C9491000C9491000C949100FC
:100040000C94960D0C9491000C94640D0C943E0D40
:100050000C9491000C9491000C9491000C949100DC
:100060000C9491000C9491000000000024002700E3
:100070002A0000000000250028002B0000000008D6
:10008000000201000003040700000000000000005F
:1000900055445020436C69656E74203A200000007E
:1000A00000002300260029000404040404040404BE
:1000B0000202020202020303030303030102040813
:1000C00010204080010204081020010204081020C2
:1000D000250E11241FBECFEFD8E0DEBFCDBF23E039
:1000E000A2EFB1E001C01D92A330B207E1F711E029
:1000F000A0E0B1E0E4E7FEE202C005900D92A23F6D
:10010000B107D9F710E0C9E6D0E004C02197FE019D
:100110000E944015C836D107C9F70E94C10E0C9441
:1001200038170C940000CF92DF92EF92FF92CF939A
:10013000DF93B091ED02A0E08111AB2F8091EE0230
:1001400090E0880F991FAC0142565F4FC090F302B8
:10015000D090F402E090F502F090F60230E020E05A
:10016000FA01C591D491E881B90190E080E0EB23D8
:10017000EA130AC02F5F3F4F6C157D058E059F0562
:1001800078F36FEF7FEFCB01DF91CF91FF90EF908E
:10019000DF90CF900895AF92BF92CF92DF92EF920F
:1001A000FF920F931F93CF93DF936C017B018B0121
:1001B000040F151FEB015E01AE18BF08C017D10771
:1001C00059F06991D601ED91FC910190F081E02DFB
:1001D000C6010995892B79F7C501DF91CF911F9150
:1001E0000F91FF90EF90DF90CF90BF90AF90089568
:1001F000FC01538D448D252F30E0842F90E0821B2D
:10020000930B541710F0CF96089501970895FC01B1
:10021000918D828D981761F0A28DAE0FBF2FB11D09
:100220005D968C91928D9F5F9F73928F90E0089561
:100230008FEF9FEF0895FC01918D828D981731F01B
:10024000828DE80FF11D858D90E008958FEF9FEF6F
:100250000895FC01918D228D892F90E0805C9F4F45
:10026000821B91098F739927089588E192E00E947B
:10027000290121E0892B09F420E0822F089580E0F4
:1002800090E0892B29F00E94350181110C94000027
:100290000895FC01A48DA80FB92FB11DA35ABF4F1B
:1002A0002C91848D90E001968F739927848FA68975
:1002B000B7892C93A089B1898C91837080648C93C9
:1002C000938D848D981306C00288F389E02D808178
:1002D0008F7D80830895EF92FF920F931F93CF93AA
:1002E000DF93EC0181E0888F9B8D8C8D98131AC071
:1002F000E889F989808185FF15C09FB7F894EE8958
:10030000FF896083E889F9898081837080648083B4
:100310009FBF81E090E0DF91CF911F910F91FF90FF
:10032000EF900895F62E0B8D10E00F5F1F4F0F73A7
:100330001127E02E8C8D8E110CC00FB607FCFACF62
:10034000E889F989808185FFF5CFCE010E944901B6
:10035000F1CFEB8DEC0FFD2FF11DE35AFF4FF08233
:100360009FB7F8940B8FEA89FB8980818062CFCF99
:10037000CF93DF93EC01888D8823B9F0AA89BB89DC
:10038000E889F9898C9185FD03C0808186FD0DC0C7
:100390000FB607FCF7CF8C9185FFF2CF808185FFE8
:1003A000EDCFCE010E944901E9CFDF91CF910895B1
:1003B000833081F028F4813099F08230A9F00895DB
:1003C0008730A9F08830C9F08430B1F48091800082
:1003D0008F7D03C0809180008F7780938000089587
:1003E00084B58F7784BD089584B58F7DFBCF8091D0
:1003F000B0008F778093B00008958091B0008F7D1A
:10040000F9CFCF93DF93282F30E0F901E458FF4F65
:100410008491F901E454FF4FD491F901E855FF4F5D
:10042000C491CC23A1F081110E94D801EC2FF0E0FF
:10043000EE0FFF1FE256FF4FA591B491EC91ED2313
:1004400081E090E009F480E0DF91CF91089580E0B1
:1004500090E0FACF1F93CF93DF93282F30E0F9017C
:10046000E458FF4F8491F901E454FF4FD491F9010E
:10047000E855FF4FC491CC23A9F0162F81110E949B
:10048000D801EC2FF0E0EE0FFF1FEE58FF4FA591C3
:10049000B4918FB7F894EC91111108C0D095DE2378
:1004A000DC938FBFDF91CF911F910895DE2BF8CFA2
:1004B000CF93DF9390E0FC01E454FF4F24918855E3
:1004C0009F4FFC0184918823C9F090E0880F991F09
:1004D000FC01E859FF4FA591B491FC01EE58FF4F84
:1004E000C591D49161110DC09FB7F8948C9120955E
:1004F00082238C938881282328839FBFDF91CF910B
:100500000895623051F49FB7F8943C91822F809502
:1005100083238C93E8812E2BEFCF8FB7F894EC9147
:100520002E2B2C938FBFEACF3FB7F894809109020E
:1005300090910A02A0910B02B0910C0226B5A89BE3
:1005400005C02F3F19F00196A11DB11D3FBFBA2F65
:10055000A92F982F8827BC01CD01620F711D811D25
:10056000911D42E0660F771F881F991F4A95D1F7AA
:1005700008958F929F92AF92BF92CF92DF92EF92A7
:10058000FF924B015C010E9494026B017C010E946E
:1005900094026C197D098E099F09683E734081059C
:1005A0009105A8F321E0821A9108A108B10888EE0C
:1005B000C80E83E0D81EE11CF11C81149104A10433
:1005C000B10429F7FF90EF90DF90CF90BF90AF90EC
:1005D0009F908F900895CF92DF92EF92FF920F93AA
:1005E0001F93CF93DF93CDB7DEB7C054D1400FB682
:1005F000F894DEBF0FBECDBF2FB7F8948091D30221
:100600009091D402A091D502B091D6022FBF409113
:10061000EF025091F0026091F1027091F2028C01B0
:100620009D01041B150B260B370BB901A801403D9A
:1006300057406105710590F48091F702C05CDE4F70
:100640000FB6F894DEBF0FBECDBFDF91CF911F91E3
:100650000F91FF90EF90DF90CF9008958093EF027D
:100660009093F002A093F102B093F2021092EA028A
:100670001092E9021092E8021092E7021092E6024C
:1006800062E08091EB020E94580261E070E080E03D
:1006900090E00E94B90261E08091EB020E94580252
:1006A00060E08091EB020E942A028091EC02855169
:1006B000823020F58BE291E10197F1F762E08091C1
:1006C000EB020E9458028091F80290E0823091057E
:1006D00038F0880F991F880F991F05970197F1F738
:1006E000F89480E00E9493006F3F7F4F8F4F9F4FA1
:1006F00061F41092F702789480E0A0CF64E170E09A
:1007000080E090E00E94B902D9CF81E00E9493007E
:100710006F3F7F4F8F4F9F4F61F38E010F5F1F4FD2
:100720006E018FEBC81A8EEFD80A780180E00E9424
:100730009300F701608371838283938381E00E9439
:100740009300F7016483758386839783F8E0EF0E47
:10075000F11CEC14FD0451F7789430E020E0F8012E
:10076000C080D180E280F3804481558166817781A9
:10077000FFEFCF16DF06EF06FF0631F04F3F8FEF9A
:1007800058076807780719F41092F702B5CFF901F6
:1007900083E0F595E7958A95E1F7EA51FD4F808171
:1007A000880FC416D506E606F70610F180832F5F82
:1007B0003F4F085F1F4F2832310589F64091EA020A
:1007C0002091E6028091E702280F3327331F8091A2
:1007D000E802280F311D8091E902820F932F911DAD
:1007E00099274817190681F681E08093F70226CFF2
:1007F0008160DCCF87E00E940102892BD9F7089540
:10080000CF93DF931F92CDB7DEB7898389818EBDE9
:1008100000000DB407FEFDCF8EB52AE030E00000E9
:1008200021503109E1F70F90DF91CF910895CF93D7
:10083000DF93D82FC62F80EE0E94000483E290E061
:100840000197F1F78D2F0E9400048C2F0E94000465
:10085000C11105C08EEEDF91CF910C940004DF91A1
:10086000CF910895DF92EF92FF920F931F93CF9352
:10087000DF93D82EE92E8B01F42E812F0E940004E5
:10088000802F0E940004CD2DDE2D0C0F1D1FC017E0
:10089000D10721F089910E940004F9CF81E0F8127C
:1008A0000AC08EEEDF91CF911F910F91FF90EF90D4
:1008B000DF900C940004DF91CF911F910F91FF9076
:1008C000EF90DF900895DF92EF92FF920F931F93C6
:1008D000CF93DF937C01C62FD42E862F0E94000475
:1008E0008701D0E0C8018E199F098C179D0734F449
:1008F000F80181918F010E940004F4CFF1E0DF1232
:100900000AC08EEEDF91CF911F910F91FF90EF9073
:10091000DF900C940004DF91CF911F910F91FF9015
:10092000EF90DF900895CF93DF93EC018FEF0E945B
:10093000000488838AE090E000000197E9F7DF91E6
:10094000CF910895CF93DF931F92CDB7DEB7198271
:10095000CE0101960E94930489810F90DF91CF917F
:100960000895CF93DF93C9EED3E00E94A2048F3E97
:1009700069F0219711F0803EC1F721E090E0803EC0
:1009800009F020E0822FDF91CF9108958FEF9FEF44
:10099000FACFCF92DF92EF92FF920F931F93CF93F4
:1009A000DF931F92CDB7DEB7182F6B017A01198242
:1009B0000E94B104892B61F490E080E00F90DF91F8
:1009C000CF911F910F91FF90EF90DF90CF900895FE
:1009D000CE0101960E949304106889811813ECCF10
:1009E000CE0101960E9493048981813029F78FEF0F
:1009F0000E940004F701808310E000E0F70180818D
:100A00008017110649F044F0C601800F911F0E9423
:100A100093040F5F1F4FF2CFCE0101960E94930403
:100A200081E090E0CBCFCF92DF92EF92FF920F93D5
:100A30001F93CF93DF931F92CDB7DEB7182F7B01A3
:100A40006A0119820E94B104892B61F490E080E070
:100A50000F90DF91CF911F910F91FF90EF90DF905A
:100A6000CF900895CE0101960E9493041068898169
:100A70001813ECCF0E94A2048823B1F08FEF0E94DC
:100A80000004F60180838701F6012081C8018E19D8
:100A90009F092817190641F03CF08FEF0E940004CF
:100AA000F80181938F01F0CFCE0101960E9493044B
:100AB00081E090E0CDCF6F927F928F929F92AF9224
:100AC000BF92CF92DF92EF92FF920F931F93CF933B
:100AD000DF931F92CDB7DEB7182F662E7A011982E9
:100AE0000E94B104892B91F490E080E00F90DF9197
:100AF000CF911F910F91FF90EF90DF90CF90BF901B
:100B0000AF909F908F907F906F900895CE01019647
:100B10000E949304106889811813E6CF0E94A204F2
:100B2000782E882309F38701D12CC12C882E912C93
:100B3000C814D90404F58FEF0E940004F8018083E3
:100B4000F12CE12CF80180818E151F0471F06CF0FE
:100B5000A180B280AE0CBF1C8FEF0E940004F50193
:100B60008083FFEFEF1AFF0AEDCF8FEFC81AD80A84
:100B70000D5F1F4FDDCF7610B7CFCE0101960E94DB
:100B8000930481E090E0B2CF61E08AE00C942A0205
:100B900060E08AE00C942A02CF93CFB7F89480915A
:100BA000FB01811127C0E2EBF0E08491E6ECF0E07C
:100BB0009491E82FF0E0EE0FFF1FE859FF4FA59149
:100BC000B491EC91E92321F461E08AE00E942A02C9
:100BD00061E08AE00E9458028CB580618CBD8CB5C2
:100BE00080648CBD61E08DE00E94580261E08BE082
:100BF0000E9458028091FB018F5F8093FB01CFBF61
:100C000061E08AE00E94580260E087E00E9458029A
:100C100061E089E00E94580261E08AE00E942A02B5
:100C200061E08AE00E942A0260E089E0CF910C94A2
:100C30002A02CF93DF9300D000D000D01F92CDB70F
:100C4000DEB78F8319821A821B821C827B836A83A0
:100C50005E834D8380910D02811105C00E94CC05F9
:100C600081E080930D020E94FA030E94C80561E0B2
:100C70008AE30E94170441E061E0CE0107960E94DA
:100C800063040E94FA03AE014F5F5F4F62E08AE3A4
:100C90000E945B050E94C40527960FB6F894DEBF3C
:100CA0000FBECDBFDF91CF910895EF92FF920F93CA
:100CB0001F93CF93DF9300D01F92CDB7DEB78B8306
:100CC0008B017A018091FA01811105C00E94CC0547
:100CD00081E08093FA010E94FA030E94C80562E055
:100CE00086E40E94170440E061E070E0CE010396C4
:100CF0000E94320441E0B701C8010E9432040E9400
:100D0000FA0319821A82AE014E5F5F4FBE016F5F18
:100D10007F4F86E40E9413050E94C4058A818823C0
:100D200021F081E09981913009F080E00F900F90DF
:100D30000F90DF91CF911F910F91FF90EF90089549
:100D4000CF93DF93EA01FC0184850E945506CE0112
:100D5000DF91CF910895FF920F931F93CF93DF936D
:100D600000D01F92CDB7DEB78B838B01F42E80911C
:100D7000FA01811105C00E94CC0581E08093FA013F
:100D80000E94FA030E94C80562E08CE20E941704E8
:100D900040E061E0CE0103960E94630482E00E947D
:100DA000000480E00E9400048F2D0E9400048EEE5B
:100DB0000E9400040E94FA0319821A82AE014E5F5B
:100DC0005F4FBE016F5F7F4F8CE20E9413050E9450
:100DD000C4058A81882369F08981F801808381E0D4
:100DE0000F900F900F90DF91CF911F910F91FF9077
:100DF000089580E0F5CFCF93DF9300D000D000D0EE
:100E0000CDB7DEB719821A821B821C821E821D8218
:100E1000AE014B5F5F4FBE016F5F7F4FFC0184856A
:100E20000E9419068D8190E0982F88272E81820FCD
:100E3000911D26960FB6F894DEBF0FBECDBFDF9191
:100E4000CF91089508950F931F93CF93DF931F922F
:100E5000CDB7DEB78C01DC01ED91FC910084F1850A
:100E6000E02D0995892B81F041E0BE016F5F7F4F36
:100E7000F80184850E94AB06898190E00F90DF9194
:100E8000CF911F910F9108958FEF9FEFF7CFCF92E2
:100E9000DF92EF92FF920F931F93CF93DF9300D0D7
:100EA000CDB7DEB78C016B01DC01ED91FC910084C4
:100EB000F185E02D0995892B69F48FEF9FEF0F9055
:100EC0000F90DF91CF911F910F91FF90EF90DF90E6
:100ED000CF900895F80184858A838091FA01811169
:100EE00005C00E94CC0581E08093FA010E94FA03BC
:100EF0000E94C80561E085E40E94170441E061E0BA
:100F000070E0CE0102960E9432040E94FA03198218
:100F10000E94B104892B19F40E94C405CECFCE01E2
:100F200001960E9493048981853CB1F70E94A20436
:100F300010E000E08823B1F08FEF0E940004082F3A
:100F40008FEF0E940004102F082F7601C00ED11ED3
:100F5000EC14FD0439F08FEF0E940004D7018D934B
:100F60007D01F6CFCE0101960E9493040E94C40534
:100F70000115110509F4A1CFC801A1CF0F931F934B
:100F8000CF93DF931F92CDB7DEB78C01DC01ED91DB
:100F9000FC910084F185E02D0995892B81F040E0DA
:100FA000BE016F5F7F4FF80184850E94AB06898187
:100FB00090E00F90DF91CF911F910F9108958FEFE7
:100FC0009FEFF7CFDC01ED91FC910084F185E02DDE
:100FD0000994CF93DF931F92CDB7DEB76983DC010D
:100FE000ED91FC910280F381E02D41E050E0BE01E3
:100FF0006F5F7F4F09950F90DF91CF910895CF9349
:10100000DF9300D01F92CDB7DEB7FC0184858B83C0
:101010008091FA01811105C00E94CC0581E0809386
:10102000FA010E94FA030E94C80561E089E30E9468
:10103000170441E061E0CE0103960E9463040E9420
:10104000FA031A821982AE014F5F5F4FBE016E5FD5
:101050007F4F89E30E9413050E94C405898188237C
:1010600021F081E09A81913009F080E090E00F90CA
:101070000F900F90DF91CF9108950F931F93CF930F
:10108000DF9300D01F92CDB7DEB7FC0124852F3F40
:1010900059F18C012B838091FA01811105C00E94C6
:1010A000CC0581E08093FA010E94FA030E94C805F2
:1010B00061E08EE20E94170441E061E0CE010396F8
:1010C0000E9463040E94FA031A821982AE014F5FE4
:1010D0005F4FBE016E5F7F4F8EE20E94C9040E9487
:1010E000C4058FEFF80184870F900F900F90DF9168
:1010F000CF911F910F910895CF93DF9300D000D02F
:10110000CDB7DEB7FC0184858F3F89F18C83809158
:10111000FA01811105C00E94CC0581E08093FA019B
:101120000E94FA030E94C80561E08BE20E94170446
:1011300041E061E0CE0104960E9463040E94FA033C
:101140001B821A821982AE014D5F5F4FBE016F5F35
:101150007F4F8BE20E94C9040E94C40589819A8155
:101160000F900F900F900F90DF91CF91089590E026
:1011700080E0F6CFDC01ED91FC91048CF58DE02D43
:10118000099480E0089590E080E0089592EF980F30
:101190008E3008F0892F8770982F906448E050E0D7
:1011A00030E020E090937C0080917A00806480930E
:1011B0007A0080917A0086FDFCCF80917800609162
:1011C0007900762F682F260F371F4150510951F7AC
:1011D000C90123E0969587952A95E1F70895FB01CB
:1011E00001900020E9F73197AF01461B570BDC0156
:1011F000ED91FC910280F381E02D09948F929F92F2
:10120000AF92BF92EF92FF920F931F93CF93DF9312
:10121000CDB7DEB7A1970FB6F894DEBF0FBECDBF36
:101220007C01FA01CB0119A2223008F42AE08E01D8
:101230000F5D1F4F822E912CB12CA12CBF01A50157
:1012400094010E941E15F901CA016A300CF5605D17
:10125000D8016E938D01232B242B252B79F790E059
:1012600080E0109721F0BD01C7010E94EF08A19610
:101270000FB6F894DEBF0FBECDBFDF91CF911F91A7
:101280000F91FF90EF90BF90AF909F908F90089537
:10129000695CDECFCF92DF92EF92FF92CF93DF9324
:1012A0006B017C016DE288E192E00E946B01EC0130
:1012B00044275527BA014C195D096E097F092AE0B8
:1012C00088E192E00E94FE088C0F9D1FDF91CF9174
:1012D000FF90EF90DF90CF9008950F931F93CF93DF
:1012E000DF93EC010E94EF088C0166E471E0CE010F
:1012F0000E94EF08800F911FDF91CF911F910F91F6
:101300000895CF93DF93AC01990F660B770B77FFAE
:1013100010C0CB01BA010E944A09EC0166E471E0F9
:1013200088E192E00E94EF088C0F9D1FDF91CF9122
:1013300008952AE088E192E00E94FE08EECFAC0119
:10134000990F660B770B77FF04C0CB01BA010C94A1
:101350004A092AE088E192E00C94FE088F929F925D
:10136000AF92BF92CF92DF92EF92FF920F931F93B3
:10137000CF93DF937C01EB016C0182E0C80ED11C9E
:101380004701E5E08E0E911C10E000E0F60141916E
:101390006F0150E070E060E02AE0CE010E94FE089C
:1013A0005C01E881F9810190F081E02D6EE2CE01CF
:1013B00009958A0D9B1D080F191FC814D90431F710
:1013C000F701458150E070E060E02AE0CE010E9424
:1013D000FE08800F911FDF91CF911F910F91FF9019
:1013E000EF90DF90CF90BF90AF909F908F90089537
:1013F000CF93DF9368E172E00E94AE09EC0166E4EE
:1014000071E088E192E00E94EF088C0F9D1FDF9150
:10141000CF910895FF920F931F93CF93DF93CDB792
:10142000DEB728970FB6F894DEBF0FBECDBFFC0124
:1014300084858F3F61F4A2EFB1E090E02D913D9162
:10144000232B21F09F5F9430C9F79FEF9487848509
:101450008F3F09F457C0052F142FFB0142815381A0
:101460006481758149835A836B837C838887FF24D9
:10147000F394FF828091FA01811104C00E94CC058F
:10148000F092FA010E94FA030E94C80564E08DE21E
:101490000E94170440E064E0CE0101960E946304BC
:1014A00082E00E940004802F0E940004812F0E948D
:1014B000000440E061E0CE0108960E94630441E030
:1014C00061E0CE0107960E9463040E94FA031E8227
:1014D0001D82AE014B5F5F4FBE016A5F7F4F8DE2A1
:1014E0000E94C9040E94C40581E090E028960FB6CE
:1014F000F894DEBF0FBECDBFDF91CF911F910F914A
:10150000FF90089590E080E0F1CFAF92BF92CF922C
:10151000DF92EF92FF920F931F93CF93DF9300D050
:1015200000D0CDB7DEB7E2EFF1E010E000E0A02E92
:1015300021913191232B39F00F5F1F4F043011059A
:10154000B1F780E047C0E72EF62E6C010C83BB2478
:10155000B394B9828091FA01811104C00E94CC0534
:10156000B092FA010E94FA030E94C80563E088E283
:101570000E94170482E00E9400048E2D0E94000445
:101580008F2D0E94000440E061E0CE0104960E948D
:10159000630441E061E0CE0101960E9463040E9471
:1015A000FA031B821A82AE014E5F5F4FBE016D5F70
:1015B0007F4F88E20E94C9040E94C405000F111FDA
:1015C000F801EE50FE4FF082E182F601A486F58626
:1015D000E68681E00F900F900F900F90DF91CF91F2
:1015E0001F910F91FF90EF90DF90CF90BF90AF9041
:1015F00008950F931F93462F90E0FC01E454FF4F92
:101600006491FC01E855FF4FE4914111462FF0E051
:10161000EE0FFF1FE256FF4F8591949100E412E414
:101620002FE030E00E94E00D611571058105910504
:1016300029F06F5F7F4F8F4F9F4F9F701F910F91CA
:101640000895CF93DF93EC0188819981009711F081
:101650000E94E215198218821D821C821B821A8246
:10166000DF91CF9108950F931F93CF93DF93EC01F8
:1016700088819981009759F02A813B812617370785
:1016800030F081E0DF91CF911F910F9108958B0190
:101690006F5F7F4F0E946B16009759F09983888384
:1016A0001B830A832C813D81232B59F7FC01108277
:1016B000E8CF80E0E7CF0F931F93CF93DF93EC0148
:1016C0000C811D810F5F1F4FB8010E94330B8823CF
:1016D00091F0288139818C819D8169E471E0820FCC
:1016E000931F0E9431171D830C83CE01DF91CF9190
:1016F0001F910F910895CE010E94210BF6CFCF923A
:10170000DF92EF92FF920F931F93CF93DF93CDB7AA
:10171000DEB728970FB6F894DEBF0FBECDBF7C01B1
:10172000CB014AE09E012F5F3F4F6901B9010E9442
:101730007412F60101900020E9F73197EC19FD09C8
:10174000D9F0D70114960D911C910E0F1F1FB801EF
:10175000C7010E94330B8823F9F0F7012081318102
:1017600084819581B601820F931F0E943117D701A2
:1017700015961C930E931497C70128960FB6F894EC
:10178000DEBF0FBECDBFDF91CF911F910F91FF90B4
:10179000EF90DF90CF900895C7010E94210BECCF0E
:1017A000EF92FF920F931F93CF93DF93EC017B0196
:1017B0008A01BA010E94330B81110BC0CE010E9435
:1017C000210BCE01DF91CF911F910F91FF90EF90F0
:1017D00008951D830C83B701888199810E94311778
:1017E000F0CF3F924F925F926F927F928F929F9233
:1017F000AF92BF92CF92DF92EF92FF920F931F931F
:10180000CF93DF93CDB7DEB72B970FB6F894DEBF3B
:101810000FBECDBF7C018B016A0180910D02811149
:1018200005C00E94CC0581E080930D020E94FA035E
:101830000E94C80561E084E30E941704F80101904A
:101840000020E9F73197BF01601B710B41E0C8012F
:101850000E9463040E94FA031F821982AE014F5F47
:101860005F4FBE01695F7F4F84E30E94C904182F58
:101870000E94C40511111AC090E080E02B960FB6AB
:10188000F894DEBF0FBECDBFDF91CF911F910F91B6
:10189000FF90EF90DF90CF90BF90AF909F908F9090
:1018A0007F906F905F904F903F9008950AE01FEFF8
:1018B000332433941B831C831D831E8380910D026C
:1018C000811104C00E94CC0530920D020E94FA03DF
:1018D0000E94C80560E085E30E9417040E94FA0395
:1018E0001B86AE01455F5F4FBE01695F7F4F85E399
:1018F0000E94C904892B61F40E94C405015009F4B7
:10190000BBCF68EE73E080E090E00E94B902D2CFD6
:101910004F80588469847A848B809C80AD80BE809F
:101920000E94C40584149504A604B70439F3D701B2
:10193000ED91FC910488F589E02D84E491E09A838F
:1019400089834B825C826D827E82A601BE016F5FBD
:101950007F4FC701099592CFEF92FF920F931F938C
:10196000CF93DF93CDB7DEB72A970FB6F894DEBFDB
:101970000FBECDBF7C018E010F5F1F4F87E0F801C6
:1019800011928A95E9F784E092E09B838A8380E054
:1019900092E09E838D838CEF91E099878887809178
:1019A0000D02811105C00E94CC0581E080930D02DB
:1019B0000E94FA030E94C80561E081E20E941704B8
:1019C0008FEF8A8741E061E0CE010A960E946304AE
:1019D0000E94FA03A80163E081E20E945B050E9475
:1019E000C4058091040290910502A0910602B09175
:1019F0000702F70182839383A483B5832A960FB6E7
:101A0000F894DEBF0FBECDBFDF91CF911F910F9134
:101A1000FF90EF9008950F931F93CF93DF9300D023
:101A200000D000D0CDB7DEB78C01FB0119821A823D
:101A30001B821C821E821D82AE014B5F5F4FBE0166
:101A40006F5F7F4F84850E94190684E491E0F8015E
:101A50009183808389819A81AB81BC8182839383C6
:101A6000A483B583C80126960FB6F894DEBF0FBED7
:101A7000CDBFDF91CF911F910F9108951F920F92CB
:101A80000FB60F9211242F933F934F935F936F9351
:101A90007F938F939F93AF93BF93EF93FF9388E1CF
:101AA00092E00E944901FF91EF91BF91AF919F9108
:101AB0008F917F916F915F914F913F912F910F90F7
:101AC0000FBE0F901F9018951F920F920FB60F9296
:101AD00011242F938F939F93EF93FF93E09128020C
:101AE000F09129028081E0912E02F0912F0282FD77
:101AF0001BC09081809131028F5F8F7320913202E1
:101B0000821741F0E0913102F0E0E85EFD4F958FE1
:101B100080933102FF91EF919F918F912F910F90C0
:101B20000FBE0F901F9018958081F4CF1F920F92D7
:101B30000FB60F9211242F933F938F939F93AF93E0
:101B4000BF938091D3029091D402A091D502B0911D
:101B5000D6023091080223E0230F2D3758F5019665
:101B6000A11DB11D209308028093D3029093D4024B
:101B7000A093D502B093D6028091090290910A02F7
:101B8000A0910B02B0910C020196A11DB11D809392
:101B9000090290930A02A0930B02B0930C02BF912A
:101BA000AF919F918F913F912F910F900FBE0F900A
:101BB0001F90189526E8230F0296A11DB11DD2CFC4
:101BC000CF92DF92EF92FF920F931F93E82FF92F9E
:101BD00005C0015011092109310961F19081962355
:101BE0009417B9F305C0015011092109310911F108
:101BF000908196239413F7CFC12CD12CE12CF12C9A
:101C00000AC08FEFC81AD80AE80AF80A0C151D0591
:101C10002E053F0579F080818623841791F36C2D82
:101C20007D2D8E2D9F2D1F910F91FF90EF90DF90B6
:101C3000CF90089560E070E080E090E01F910F91F8
:101C4000FF90EF90DF90CF9008950F931F93E8E1FE
:101C5000F2E01382128248EE53E060E070E04483C9
:101C60005583668377838AE091E09183808385EC56
:101C700090E09587848784EC90E09787868780EC56
:101C800090E0918B808B81EC90E0938B828B82EC47
:101C900090E0958B848B86EC90E0978B868B118EF1
:101CA000128E138E148EE5EBF2E084E491E09183C2
:101CB00080831282138214821582EBEBF2E091830F
:101CC00080831282138214821582E1ECF2E0918308
:101CD00080831282138214821582E7ECF2E09183F2
:101CE00080831282138214821582EDECF2E09183DC
:101CF00080831282138214821582E9EFF2E09183CD
:101D000080831282138214821582A6EEB2E08DE0E7
:101D100015968C9315978BE016968C931697E9EC95
:101D2000F0E0E4911796EC931797E5EBF0E0E4917F
:101D30001896EC93189700E81EE320E030E01D961B
:101D40000D931D932D933C9350978FB7F89400916A
:101D5000D3021091D4022091D5023091D6028FBFC8
:101D6000E7EDF2E013821282448355836683778322
:101D70008CE191E0918380838FEF84871F910F9195
:101D80000895CF93DF93CDB7DEB72E970FB6F894B3
:101D9000DEBF0FBECDBF789484B5826084BD84B5AC
:101DA000816084BD85B5826085BD85B5816085BD56
:101DB00080916E00816080936E001092810080910E
:101DC0008100826080938100809181008160809396
:101DD0008100809180008160809380008091B100BB
:101DE00084608093B1008091B00081608093B000E6
:101DF00080917A00846080937A0080917A0082607A
:101E000080937A0080917A00816080937A0080913B
:101E10007A00806880937A001092C100E0912802D5
:101E2000F091290282E08083E0912402F091250262
:101E30001082E0912602F091270280E180831092C7
:101E40003002E0912C02F0912D0286E08083E09137
:101E50002A02F0912B02808180618083E0912A0226
:101E6000F0912B02808188608083E0912A02F091BA
:101E70002B02808180688083E0912A02F0912B02FE
:101E800080818F7D808362E08091EB020E94580206
:101E90002FB7F8948091D3029091D402A091D502EB
:101EA000B091D6022FBF805D9740A109B109809300
:101EB000EF029093F002A093F102B093F20287E355
:101EC0008093F8026BE471E088E192E00E946D0972
:101ED00060E082E20E94580260E083E20E945802C1
:101EE00060E08EE00E94580280910D02811105C0D1
:101EF0000E94CC0581E080930D020E94FA030E94AB
:101F0000C80562E081E10E94170440E068E087E5CF
:101F100091E00E94630441E068E080E691E00E9465
:101F200063040E94FA031F8219821E0187E0280EB3
:101F3000311CAE014F5F5F4FB10181E10E94C904C6
:101F4000892B11F48FEF8F830E94C4058F818F3FFF
:101F500061F11AE0FF24F3940FEF68E873E180E089
:101F600090E00E94B90280910D02811104C00E948C
:101F7000CC05F0920D020E94FA030E94C80560E0B1
:101F800080E20E9417040E94FA030F831982AE01B7
:101F90004F5F5F4FB10180E20E94C9040E94C405F7
:101FA0008F818D7F11F41150C1F66FE077E287EDDC
:101FB00092E00E94850A00E910E0F801649166232E
:101FC00041F088E192E00E946B010F5F1F4F892B67
:101FD000A1F784E491E09A8389831B821C821D828D
:101FE0001E82CE0101960E94AC0CCE0101960E9489
:101FF000F8094FE057E269E671E087ED92E00E9450
:10200000F10B18861F821A8619861C861B8650E0E3
:1020100040E068E471E0C1010E94D00B0E94EB0235
:10202000882349F08091EC028B3028F08D3040F00D
:1020300085518230A8F160E070E080EC9FE71CC021
:102040006091E70270E090E080E00E94B0122DEC19
:102050003CEC4CEC5DE30E940F136B017C01609142
:10206000E60270E090E080E00E94B0129B01AC01BB
:10207000C701B6010E9405140E94E3146B010E947F
:10208000EB02882341F08091EC028C3009F405C208
:10209000C8F48B3081F160E070E080EC9FE753C0C2
:1020A0006091E6027091E70276276727762790E035
:1020B00080E00E94AE122DEC3CEC4CEC5DE30E9403
:1020C0000F13DACF8551823030F71091E802612F7B
:1020D00070E0762F662766277F778091E902682B6C
:1020E00090E080E00E94AE122DEC3CEC4CEC5DE305
:1020F0000E940F13EEC16091E80270E090E080E072
:102100000E94AE124B015C011091E90217FF0AC058
:10211000AC019B0160E070E080E89FEB0E9404143A
:102120004B015C011F70612F70E090E080E00E9425
:10213000B0122DEC3CEC4CEC5DE30E940F13A501BA
:1021400094010E9405140E94E3142B0182E290E0A6
:102150000E94C6088C0183E290E00E94C608BC0180
:10216000990F880B990B0E94B0129B01AC0163E39D
:1021700073E383E590E40E9471144B015C01B801A4
:10218000110F880B990B0E94B0129B01AC01C50185
:10219000B4010E940F1324EA30E74DE75FE30E9489
:1021A000041420E030E040E751E40E940F1324E1E2
:1021B0003EEA47EE5FE30E94711420E030E0A9019F
:1021C0000E9405144B015C0161E08EE00E94F90A57
:1021D0006093140270931502809316029093170275
:1021E00060E08EE00E94F90A2091140230911502FD
:1021F0004091160250911702260F371F481F591F92
:102200002093100230931102409312025093130254
:1022100010E000E02115310541055105A9F060E409
:1022200072E48FE090E00E941E15B901330F880B15
:10223000990B0E94B01221EE3AE744E55FE30E9459
:102240000F130E94E3148B0120E030E0A901C501C7
:10225000B4010E94A91287FD40C120E030E0A9012D
:10226000C501B4010E941915181634F4C501B40152
:102270000E94E3147E876D8769E771E088E192E050
:102280000E94EF08C2010E949F0967E871E088E19F
:1022900092E00E94EF086AE871E088E192E00E9413
:1022A0006D096CE871E088E192E00E94EF08C601D8
:1022B0000E949F0967E971E088E192E00E946D0940
:1022C00069E971E088E192E00E94EF084091100214
:1022D0005091110260911202709113022AE088E17C
:1022E00092E00E94FE086DE971E088E192E00E94B0
:1022F000EF0887E10E9401020E94810965EA71E00E
:1023000088E192E00E94EF0880910E0290910F0206
:102310000E9481096AEA71E088E192E00E94EF0878
:10232000C8010E9481096BEB71E088E192E00E9494
:10233000EF088D859E850E94810964ED71E088E13A
:1023400092E00E94EF088AEA9BE80E94810966E415
:1023500071E088E192E00E94EF08A0900E02B09038
:102360000F021A8219821C821B821E821D826F81BB
:1023700078856115710531F04B855C85CE0101963C
:102380000E94D00BB201CE0101960E947F0B0E94E9
:102390005B0BB6010E947F0B0E945B0BB5010E9494
:1023A0007F0B0E945B0BB8010E947F0B0E945B0BAE
:1023B0006D857E850E947F0B0E945B0B6AEA7BE83D
:1023C0000E947F0B8215930561F0FC016081718191
:1023D0006115710509F484C044815581C1010E94D1
:1023E000D00B89819A81009711F00E94E21587E154
:1023F0000E940102892B31F481E090E090930F025A
:1024000080930E0287E10E940102019721F410924D
:102410000F0210920E026EED71E088E192E00E94D0
:10242000EF08E4E4F1E0FA83E9831B821C821D8259
:102430001E82CE0101960E94AC0CCE0101960E9434
:10244000F8094B855C856F8178858091E3020E9455
:10245000550666E471E087ED92E00E94EF0887ED93
:1024600092E00E94FF0750E040E068E471E0C101A3
:102470000E94D00B8F819885009711F00E94E21581
:1024800080E090E0892B09F4B4CD0E9435018823C7
:1024900009F4AFCD0E940000ACCD1091E802612F8D
:1024A00070E090E080E00E94AE124B015C01609110
:1024B000E9026F7070E090E080E00E94B0122DECB5
:1024C0003CEC4CEC5DE30E940F13A50194010E94CB
:1024D000051417FF38CE905836CE1E861D86CCCEFA
:1024E000C1010E94210B7DCFBB274A3031F49923D3
:1024F00022F4BDE2909581959F4F0C948012BB27EA
:10250000FB015527AA27880F991FAA1FA41710F0AF
:10251000A41B83955051B9F7A05DAA3308F0A95DBB
:10252000A193009779F7B111B1931192CB010C945B
:102530009912DC01FC01672F71917723E1F7329743
:1025400004C07C916D9370836291AE17BF07C8F38E
:1025500008950E94EB1208F481E00895E89409C000
:1025600097FB3EF490958095709561957F4F8F4FC6
:102570009F4F9923A9F0F92F96E9BB279395F695DC
:10258000879577956795B795F111F8CFFAF4BB0F5A
:1025900011F460FF1BC06F5F7F4F8F4F9F4F16C0BE
:1025A000882311F096E911C0772321F09EE8872F48
:1025B000762F05C0662371F096E8862F70E060E004
:1025C0002AF09A95660F771F881FDAF7880F96957D
:1025D000879597F90895990F0008550FAA0BE0E821
:1025E000FEEF16161706E807F907C0F012161306D5
:1025F000E407F50798F0621B730B840B950B39F415
:102600000A2661F0232B242B252B21F408950A267A
:1026100009F4A140A6958FEF811D811D08950E94A8
:1026200022130C9493130E94851338F00E948C138C
:1026300020F0952311F00C947C130C948213112438
:102640000C94C7130E94A41370F3959FC1F3950FC8
:1026500050E0551F629FF001729FBB27F00DB11D26
:10266000639FAA27F00DB11DAA1F649F6627B00DB6
:10267000A11D661F829F2227B00DA11D621F739F9F
:10268000B00DA11D621F839FA00D611D221F749FAD
:102690003327A00D611D231F849F600D211D822FF4
:1026A000762F6A2F11249F5750409AF0F1F088231B
:1026B0004AF0EE0FFF1FBB1F661F771F881F915048
:1026C0005040A9F79E3F510580F00C947C130C9468
:1026D000C7135F3FE4F3983ED4F3869577956795EB
:1026E000B795F795E7959F5FC1F7FE2B880F911D72
:1026F0009695879597F9089597F99F6780E870E018
:1027000060E008959FEF80EC089500240A94161667
:10271000170618060906089500240A9412161306CF
:10272000140605060895092E0394000C11F488235D
:1027300052F0BB0F40F4BF2B11F460FF04C06F5F79
:102740007F4F8F4F9F4F089557FD9058440F551F4F
:1027500059F05F3F71F04795880F97FB991F61F023
:102760009F3F79F087950895121613061406551F9A
:10277000F2CF4695F1DF08C0161617061806991F06
:10278000F1CF86957105610508940895E894BB27FB
:1027900066277727CB0197F908952F923F924F92A2
:1027A0005F926F927F928F929F92AF92BF92CF92E1
:1027B000DF92EF92FF920F931F93CF93DF93CDB7EA
:1027C000DEB7CA1BDB0B0FB6F894DEBF0FBECDBF62
:1027D00009942A88398848885F846E847D848C8433
:1027E0009B84AA84B984C884DF80EE80FD800C813C
:1027F0001B81AA81B981CE0FD11D0FB6F894DEBF1F
:102800000FBECDBFED0108955058BB27AA270E94E7
:102810001C140C9493130E94851338F00E948C139F
:1028200020F039F49F3F19F426F40C9482130EF42F
:10283000E095E7FB0C947C13E92F0E94A41358F356
:10284000BA17620773078407950720F079F4A6F595
:102850000C94C6130EF4E0950B2EBA2FA02D0B018D
:10286000B90190010C01CA01A0011124FF27591BD5
:1028700099F0593F50F4503E68F11A16F040A22FDB
:10288000232F342F4427585FF3CF4695379527954C
:10289000A795F0405395C9F77EF41F16BA0B620B4B
:1028A000730B840BBAF09150A1F0FF0FBB1F661F92
:1028B000771F881FC2F70EC0BA0F621F731F841FD5
:1028C00048F4879577956795B795F7959E3F08F0FB
:1028D000B0CF9395880F08F09927EE0F97958795BD
:1028E00008950E9485140C9493130E948C1358F041
:1028F0000E94851340F029F45F3F29F00C947C136B
:1029000051110C94C7130C9482130E94A41368F302
:102910009923B1F3552391F3951B550BBB27AA2798
:1029200062177307840738F09F5F5F4F220F331FD2
:10293000441FAA1FA9F335D00E2E3AF0E0E832D09A
:1029400091505040E695001CCAF72BD0FE2F29D09D
:10295000660F771F881FBB1F261737074807AB076F
:10296000B0E809F0BB0B802DBF01FF2793585F4FE4
:102970003AF09E3F510578F00C947C130C94C713E9
:102980005F3FE4F3983ED4F3869577956795B795C6
:10299000F7959F5FC9F7880F911D9695879597F9D1
:1029A0000895E1E0660F771F881FBB1F621773074A
:1029B0008407BA0720F0621B730B840BBA0BEE1F5F
:1029C00088F7E09508950E94EA146894B1110C9478
:1029D000C71308950E94AC1388F09F5798F0B92F41
:1029E0009927B751B0F0E1F0660F771F881F991F44
:1029F0001AF0BA95C9F714C0B13091F00E94C6130D
:102A0000B1E008950C94C613672F782F8827B85F1C
:102A100039F0B93FCCF3869577956795B395D9F79B
:102A20003EF490958095709561957F4F8F4F9F4FA5
:102A300008950E94EB1208F48FEF0895A1E21A2E78
:102A4000AA1BBB1BFD010DC0AA1FBB1FEE1FFF1F52
:102A5000A217B307E407F50720F0A21BB30BE40BA2
:102A6000F50B661F771F881F991F1A9469F76095E9
:102A70007095809590959B01AC01BD01CF010895A3
:102A8000EE0FFF1F0590F491E02D09940F931F9313
:102A9000CF93DF938230910510F482E090E0E091D3
:102AA0000103F091020330E020E0B0E0A0E03097B5
:102AB00099F42115310509F44AC0281B390B24303B
:102AC0003105D8F58A819B816115710589F1FB017A
:102AD00093838283FE0111C0408151810281138161
:102AE00048175907E0F04817590799F4109761F013
:102AF00012960C93129713961C933296CF01DF9186
:102B0000CF911F910F910895009301031093020339
:102B1000F4CF2115310551F04217530738F0A901C0
:102B2000DB019A01BD01DF01F801C1CFEF01F9CF4F
:102B30009093020380930103CDCFFE01E20FF31FB8
:102B4000819391932250310939832883D7CF2091E3
:102B5000FF0230910003232B41F4209102013091B8
:102B60000301309300032093FF0220910001309174
:102B700001012115310541F42DB73EB74091040103
:102B800050910501241B350BE091FF02F0910003E9
:102B9000E217F307A0F42E1B3F0B2817390778F034
:102BA000AC014E5F5F4F2417350748F04E0F5F1F93
:102BB000509300034093FF02819391939FCFF0E0E5
:102BC000E0E09CCFCF93DF930097E9F0FC013297D0
:102BD00013821282A0910103B0910203ED0130E053
:102BE00020E01097A1F420813181820F931F209162
:102BF000FF02309100032817390709F061C0F093F4
:102C00000003E093FF02DF91CF910895EA01CE1710
:102C1000DF07E8F54A815B819E0141155105B1F757
:102C2000E901FB83EA8349915991C40FD51FEC1741
:102C3000FD0761F4808191810296840F951FE9015F
:102C400099838883828193819B838A83F0E0E0E08B
:102C500012968D919C9113970097B9F52D913C9107
:102C60001197CD010296820F931F2091FF023091A0
:102C700000032817390739F6309751F510920203EF
:102C800010920103B0930003A093FF02BCCFD38343
:102C9000C28340815181840F951FC817D90761F401
:102CA0004E5F5F4F88819981480F591F5183408340
:102CB0008A819B81938382832115310509F0B0CFEE
:102CC000F0930203E09301039ECFFD01DC01C0CF2E
:102CD00013821282D7CFB0E0A0E0E1E7F6E10C94D6
:102CE000CF138C01009751F4CB010E9446158C0143
:102CF000C801CDB7DEB7E0E10C94EB13FC01E60FA1
:102D0000F71F9C0122503109E217F30708F49DC018
:102D1000D901CD91DC911197C617D70798F0C5302E
:102D2000D10530F3CE0104978617970708F3C61B29
:102D3000D70B2297C193D1936D937C93CF010E94BF
:102D4000E215D6CF5B01AC1ABD0A4C018C0E9D1E5C
:102D5000A0910103B0910203512C412CF12CE12CE4
:102D6000109731F58091FF02909100038815990525
:102D700009F05CC04616570608F058C08091000163
:102D800090910101009741F48DB79EB740910401E5
:102D900050910501841B950BE817F90708F055C001
:102DA000F0930003E093FF02F90171836083A0CFE9
:102DB0008D919C91119712966C90129713967C901E
:102DC0001397A815B90559F56C0142E0C40ED11C42
:102DD000CA14DB0420F1AC014A195B09DA0112962E
:102DE000159780F06282738251834083D9016D937D
:102DF0007C93E114F10471F0D7011396FC93EE93E8
:102E0000129776CF22968C0F9D1FF90191838083B4
:102E1000F301EFCFF0930203E093010369CF48166B
:102E2000590608F42C017D01D3019ACFCB010E94F1
:102E300046157C01009749F0AE01B8010E942817A1
:102E4000C8010E94E215870153CF10E000E050CF87
:102E5000FB01DC0102C001900D9241505040D8F7B7
:102E60000895FB01DC0101900D920020E1F7089527
:102E7000F894FFCF000003038000000000006B0106
:102E8000CB00F800B801290107011B010000000078
:102E9000E907A006C30822077C08BE072307850AA6
:102EA000C1083D080A0AF10BFF07E2074707BA0805
:102EB0000B0DFB0600000000AE090D0A002C004CB3
:102EC0006F52612053656E6465720057696669636D
:102ED0006875610031323334353637380031393274
:102EE0002E3136382E3133372E3232380054656D5C
:102EF00070657261747572653A2000C2B00043005B
:102F000048756D69646974793A20002500543A2047
:102F1000005261696E443A20006D7561200076614F
:102F20006E20746F6320286D2F7329203D2000557B
:102F30005620496E74656E7369747920286D572F19
:102F4000636D5E32293A2000417020737561743AD6
:102F500020005B436C69656E7420436F6E6E656321
:062F60007465645D2000B1
:107800000C94343C0C94513C0C94513C0C94513CE1
:107810000C94513C0C94513C0C94513C0C94513CB4
:107820000C94513C0C94513C0C94513C0C94513CA4
:107830000C94513C0C94513C0C94513C0C94513C94
:107840000C94513C0C94513C0C94513C0C94513C84
:107850000C94513C0C94513C0C94513C0C94513C74
:107860000C94513C0C94513C11241FBECFEFD8E036
:10787000DEBFCDBF11E0A0E0B1E0ECE9FFE702C060
:1078800005900D92A230B107D9F712E0A2E0B1E065
:1078900001C01D92AD30B107E1F70E942D3D0C945F
:1078A000CC3F0C94003C982F959595959595959582
:1078B000905D8F708A307CF0282F295A8091C0000B
:1078C00085FFFCCF9093C6008091C00085FFFCCF60
:1078D0002093C6000895282F205DF0CF982F809127
:1078E000C00085FFFCCF9093C6000895EF92FF92F1
:1078F0000F931F93EE24FF2487018091C00087FD22
:1079000017C00894E11CF11C011D111D81E4E8164B
:1079100082E4F8068FE0080780E0180770F3E09132
:107920000401F091050109958091C00087FFE9CF1E
:107930008091C6001F910F91FF90EF9008950E94D3
:10794000763C982F8091C00085FFFCCF9093C600B5
:1079500091362CF490330CF09053892F089597555D
:10796000892F08951F930E949F3C182F0E949F3CCF
:107970001295107F810F1F9108951F93182F882350
:1079800021F00E94763C1150E1F71F9108951F935A
:10799000182F0E94763C803249F0809103018F5F5E
:1079A000809303018530C1F01F9108958091C0003C
:1079B00085FFFCCF84E18093C6008091C00085FFE5
:1079C000FCCF1093C6008091C00085FFFCCF80E102
:1079D0008093C6001F910895E0910401F091050184
:1079E00009951F9108950E94763C803241F0809164
:1079F00003018F5F80930301853081F008958091AA
:107A0000C00085FFFCCF84E18093C6008091C00058
:107A100085FFFCCF80E18093C6000895E0910401CA
:107A2000F09105010995089540E951E08823A1F0FE
:107A30002D9A28EE33E0FA013197F1F721503040CA
:107A4000D1F72D9828EE33E0FA013197F1F7215064
:107A50003040D1F7815061F708953F924F925F9285
:107A60006F927F928F929F92AF92BF92CF92DF924E
:107A7000EF92FF920F931F93CF93DF93000080E16B
:107A80008093C4001092C50088E18093C10086E015
:107A90008093C2005098589A259A81E00E94143D24
:107AA00024E1F22E9EE1E92E85E9D82E0FE0C02ECA
:107AB00010E1B12EAA24A394B1E49B2EA6E58A2E50
:107AC000F2E57F2EE0E26E2E79E4572E63E5462E36
:107AD00050E5352E0E94763C8033B1F18133B9F107
:107AE000803409F46FC0813409F476C0823409F41B
:107AF00085C0853409F488C0803531F1823521F1A3
:107B0000813511F1853509F485C0863509F48DC0BC
:107B1000843609F496C0843709F403C1853709F423
:107B200072C1863709F466C0809103018F5F80932C
:107B30000301853079F6E0910401F0910501099582
:107B40000E94763C803351F60E94F33CC3CF0E94E2
:107B5000763C803249F78091C00085FFFCCFF092DF
:107B6000C6008091C00085FFFCCF9092C600809136
:107B7000C00085FFFCCF8092C6008091C00085FFC9
:107B8000FCCF7092C6008091C00085FFFCCF609250
:107B9000C6008091C00085FFFCCF5092C600809146
:107BA000C00085FFFCCF4092C6008091C00085FFD9
:107BB000FCCF3092C6008091C00085FFFCCFB09210
:107BC000C60088CF0E94763C863808F4BDCF0E945C
:107BD000763C0E94F33C7ECF0E94763C803809F4CC
:107BE0009CC0813809F40BC1823809F43CC1883942
:107BF00009F48FC080E00E94C73C6CCF84E10E94F2
:107C0000BD3C0E94F33C66CF85E00E94BD3C0E94D3
:107C1000F33C60CF0E94763C809306010E94763C44
:107C2000809307010E94F33C55CF0E94763C80333D
:107C300009F41DC183E00E94BD3C80E00E94C73C66
:107C400049CF0E94763C809309020E94763C809343
:107C5000080280910C028E7F80930C020E94763C79
:107C6000853409F415C18091080290910902892B8D
:107C700089F000E010E00E94763CF801E85FFE4FDA
:107C800080830F5F1F4F80910802909109020817AF
:107C9000190788F30E94763C803209F045CF809125
:107CA0000C0280FF01C16091060170910701660F0F
:107CB000771F7093070160930601A0910802B091AD
:107CC00009021097C9F0E8E0F1E09B01AD014E0F09
:107CD0005F1FF999FECF32BD21BD819180BDFA9A17
:107CE000F99A2F5F3F4FE417F50799F76A0F7B1F4B
:107CF00070930701609306018091C00085FFFCCF5F
:107D0000F092C6008091C00085FFFCCFB092C60003
:107D1000E1CE83E00E94C73CDDCE82E00E94C73CFA
:107D2000D9CE0E94763C809309020E94763C8093D3
:107D300008028091060190910701880F991F909386
:107D40000701809306010E94763C853409F4A6C0A1
:107D500080910C028E7F80930C020E94763C8032D0
:107D600009F0B8CE8091C00085FFFCCFF092C6002C
:107D7000609108027091090261157105B9F140E046
:107D800050E080910C02A82FA170B82FB27011C0E2
:107D9000BB2309F45CC0E0910601F0910701319624
:107DA000F0930701E09306014F5F5F4F46175707B7
:107DB000E8F4AA2369F3F999FECF209106013091E6
:107DC000070132BD21BDF89A90B58091C00085FFB2
:107DD000FCCF9093C6002F5F3F4F30930701209355
:107DE00006014F5F5F4F4617570718F38091C00099
:107DF00085FDE5CE8091C00085FFF8CFE0CE81E023
:107E00000E94C73C67CE0E94763C803209F08CCE3F
:107E10008091C00085FFFCCFF092C6008091C00029
:107E200085FFFCCFE092C6008091C00085FFFCCFAB
:107E3000D092C6008091C00085FFFCCFC092C600E2
:107E40008091C00085FFFCCFB092C60043CEE09188
:107E50000601F091070194918091C00085FFFCCF4D
:107E60009093C6009CCF80E10E94C73C33CE0E9415
:107E7000763C0E94763C182F0E94763C112309F430
:107E800083C0113009F484C08FE00E94C73C22CE29
:107E900080910C02816080930C02E5CE80910C02EF
:107EA000816080930C0259CF809107018823880F4D
:107EB000880B8A2180930B02809106019091070123
:107EC000880F991F90930701809306018091080203
:107ED00080FF09C080910802909109020196909359
:107EE000090280930802F894F999FECF1127E091D6
:107EF0000601F0910701C8E0D1E08091080290915D
:107F00000902103091F40091570001700130D9F34B
:107F100003E000935700E89500915700017001308D
:107F2000D9F301E100935700E89509901990009169
:107F3000570001700130D9F301E000935700E89534
:107F40001395103498F011270091570001700130FB
:107F5000D9F305E000935700E895009157000170B0
:107F60000130D9F301E100935700E895329602976A
:107F700009F0C7CF103011F00296E5CF112480919F
:107F8000C00085FFB9CEBCCE8EE10E94C73CA2CD19
:0E7F900085E90E94C73C9ECDF894FFCF80008B
:00000001FF
